{
  "contractName": "EcommerceStore",
  "abi": [
    {
      "constant": false,
      "inputs": [
        {
          "name": "_name",
          "type": "string"
        },
        {
          "name": "_category",
          "type": "string"
        },
        {
          "name": "_imageLink",
          "type": "string"
        },
        {
          "name": "_descLink",
          "type": "string"
        },
        {
          "name": "_auctionStartTime",
          "type": "uint256"
        },
        {
          "name": "_auctionEndTime",
          "type": "uint256"
        },
        {
          "name": "_startPrice",
          "type": "uint256"
        },
        {
          "name": "_productCondition",
          "type": "uint256"
        },
        {
          "name": "_productCondition",
          "type": "uint256"
        }
      ],
      "name": "addProductToStore",
      "outputs": [],
      "payable": false,
      "stateMutability": "nonpayable",
      "type": "function"
    },
    {
      "constant": true,
      "inputs": [
        {
          "name": "_id",
          "type": "uint256"
        }
      ],
      "name": "getProduct",
      "outputs": [
        {
          "components": [
            {
              "name": "id",
              "type": "uint256"
            },
            {
              "name": "name",
              "type": "string"
            },
            {
              "name": "category",
              "type": "string"
            },
            {
              "name": "imageLink",
              "type": "string"
            },
            {
              "name": "descLink",
              "type": "string"
            },
            {
              "name": "auctionStartTime",
              "type": "uint256"
            },
            {
              "name": "auctionEndTime",
              "type": "uint256"
            },
            {
              "name": "startPrice",
              "type": "uint256"
            },
            {
              "name": "highestBidder",
              "type": "address"
            },
            {
              "name": "highestBid",
              "type": "uint256"
            },
            {
              "name": "secondHighestBid",
              "type": "uint256"
            },
            {
              "name": "totalBids",
              "type": "uint256"
            },
            {
              "name": "status",
              "type": "uint8"
            },
            {
              "name": "condition",
              "type": "uint8"
            }
          ],
          "name": "",
          "type": "tuple"
        }
      ],
      "payable": false,
      "stateMutability": "view",
      "type": "function"
    },
    {
      "constant": true,
      "inputs": [],
      "name": "productIndex",
      "outputs": [
        {
          "name": "",
          "type": "uint256"
        }
      ],
      "payable": false,
      "stateMutability": "view",
      "type": "function"
    },
    {
      "inputs": [],
      "payable": false,
      "stateMutability": "nonpayable",
      "type": "constructor"
    }
  ],
  "bytecode": "0x6060604052341561000f57600080fd5b60008081905550610a9f806100256000396000f300606060405260043610610057576000357c0100000000000000000000000000000000000000000000000000000000900463ffffffff168063a508b9551461005c578063b9db15b4146101a6578063c897d5a6146101dd575b600080fd5b341561006757600080fd5b6101a4600480803590602001908201803590602001908080601f0160208091040260200160405190810160405280939291908181526020018383808284378201915050505050509190803590602001908201803590602001908080601f0160208091040260200160405190810160405280939291908181526020018383808284378201915050505050509190803590602001908201803590602001908080601f0160208091040260200160405190810160405280939291908181526020018383808284378201915050505050509190803590602001908201803590602001908080601f01602080910402602001604051908101604052809392919081815260200183838082843782019150505050505091908035906020019091908035906020019091908035906020019091908035906020019091905050610206565b005b34156101b157600080fd5b6101c760048080359060200190919050506104d7565b6040518082815260200191505060405180910390f35b34156101e857600080fd5b6101f0610900565b6040518082815260200191505060405180910390f35b61020e610906565b838510151561021c57600080fd5b600160008082825401925050819055506101c06040519081016040528060005481526020018a8152602001898152602001888152602001878152602001868152602001858152602001848152602001600073ffffffffffffffffffffffffffffffffffffffff168152602001600081526020016000815260200160008152602001600060028111156102aa57fe5b81526020018360018111156102bb57fe5b60018111156102c657fe5b815250905080600260003373ffffffffffffffffffffffffffffffffffffffff1673ffffffffffffffffffffffffffffffffffffffff1681526020019081526020016000206000805481526020019081526020016000206000820151816000015560208201518160010190805190602001906103439291906109ba565b5060408201518160020190805190602001906103609291906109ba565b50606082015181600301908051906020019061037d9291906109ba565b50608082015181600401908051906020019061039a9291906109ba565b5060a0820151816005015560c0820151816006015560e082015181600701556101008201518160080160006101000a81548173ffffffffffffffffffffffffffffffffffffffff021916908373ffffffffffffffffffffffffffffffffffffffff160217905550610120820151816009015561014082015181600a015561016082015181600b015561018082015181600c0160006101000a81548160ff0219169083600281111561044757fe5b02179055506101a082015181600c0160016101000a81548160ff0219169083600181111561047157fe5b021790555090505033600160008054815260200190815260200160002060006101000a81548173ffffffffffffffffffffffffffffffffffffffff021916908373ffffffffffffffffffffffffffffffffffffffff160217905550505050505050505050565b6104df610906565b6104e7610906565b600260006001600086815260200190815260200160002060009054906101000a900473ffffffffffffffffffffffffffffffffffffffff1673ffffffffffffffffffffffffffffffffffffffff1673ffffffffffffffffffffffffffffffffffffffff16815260200190815260200160002060008481526020019081526020016000206101c0604051908101604052908160008201548152602001600182018054600181600116156101000203166002900480601f01602080910402602001604051908101604052809291908181526020018280546001816001161561010002031660029004801561061a5780601f106105ef5761010080835404028352916020019161061a565b820191906000526020600020905b8154815290600101906020018083116105fd57829003601f168201915b50505050508152602001600282018054600181600116156101000203166002900480601f0160208091040260200160405190810160405280929190818152602001828054600181600116156101000203166002900480156106bc5780601f10610691576101008083540402835291602001916106bc565b820191906000526020600020905b81548152906001019060200180831161069f57829003601f168201915b50505050508152602001600382018054600181600116156101000203166002900480601f01602080910402602001604051908101604052809291908181526020018280546001816001161561010002031660029004801561075e5780601f106107335761010080835404028352916020019161075e565b820191906000526020600020905b81548152906001019060200180831161074157829003601f168201915b50505050508152602001600482018054600181600116156101000203166002900480601f0160208091040260200160405190810160405280929190818152602001828054600181600116156101000203166002900480156108005780601f106107d557610100808354040283529160200191610800565b820191906000526020600020905b8154815290600101906020018083116107e357829003601f168201915b505050505081526020016005820154815260200160068201548152602001600782015481526020016008820160009054906101000a900473ffffffffffffffffffffffffffffffffffffffff1673ffffffffffffffffffffffffffffffffffffffff1673ffffffffffffffffffffffffffffffffffffffff16815260200160098201548152602001600a8201548152602001600b8201548152602001600c820160009054906101000a900460ff1660028111156108b957fe5b60028111156108c457fe5b8152602001600c820160019054906101000a900460ff1660018111156108e657fe5b60018111156108f157fe5b81525050905080915050919050565b60005481565b6101c06040519081016040528060008152602001610922610a3a565b815260200161092f610a3a565b815260200161093c610a3a565b8152602001610949610a3a565b8152602001600081526020016000815260200160008152602001600073ffffffffffffffffffffffffffffffffffffffff168152602001600081526020016000815260200160008152602001600060028111156109a257fe5b8152602001600060018111156109b457fe5b81525090565b828054600181600116156101000203166002900490600052602060002090601f016020900481019282601f106109fb57805160ff1916838001178555610a29565b82800160010185558215610a29579182015b82811115610a28578251825591602001919060010190610a0d565b5b509050610a369190610a4e565b5090565b602060405190810160405280600081525090565b610a7091905b80821115610a6c576000816000905550600101610a54565b5090565b905600a165627a7a723058200d01f8bde114c59b84f7319a8a8d32b44e5758b95913a15bf140d19d32527d0c0029",
  "source": "pragma solidity ^0.4.13;\n\ncontract EcommerceStore {\n\n    enum ProductStatus { Open, Sold, Unsold }\n    enum ProductCondition { New, Used }\n\n    // number of products in the store\n    uint public productIndex;\n\n    // keeps track of which products are in which merchant's store (product id => store address)\n    mapping (uint => address) productIdInStore;\n\n    // (merchant account address => (number of products in store => product struct))\n    mapping (address => mapping(uint => Product)) stores;\n\n    // Product details stored on the blockchain (links references IPFS data)\n    struct Product {\n        uint id;\n        string name;\n        string category;\n        string imageLink;\n        string descLink;\n        uint auctionStartTime;\n        uint auctionEndTime;\n        uint startPrice;\n        address highestBidder;\n        uint highestBid;\n        uint secondHighestBid;\n        uint totalBids;\n        ProductStatus status;\n        ProductCondition condition;\n    }\n\n    function EcommerceStore() public {\n        // initialize product count\n        productIndex = 0;\n    }\n\n    function addProductToStore(string _name, string _category, string _imageLink, \n                                string _descLink, uint _auctionStartTime, uint _auctionEndTime, \n                                uint _startPrice, uint _productCondition) public \n    {\n        require(_auctionStartTime < _auctionEndTime);\n        productIndex += 1;\n        Product memory product = Product(productIndex, _name, _category, _imageLink,\n                                 _descLink, _auctionStartTime, _auctionEndTime, _startPrice, \n                                 0, 0, 0, 0, ProductStatus.Open, ProductCondition(_productCondition));\n        stores[msg.sender][productIndex] = product;\n        productIdInStore[productIndex] = msg.sender;\n    }\n\n    function getProduct(uint _id) view public returns (Product) {\n        Product memory product = stores[productIdInStore[_id]][_id];\n        return product;\n    }\n}",
  "sourcePath": "/Users/surayashivji/Desktop/vinyl/contracts/EcommerceStore.sol",
  "compiler": {
    "name": "solc",
    "version": "0.4.18+commit.9cf6e910.Emscripten.clang"
  },
  "schemaVersion": "1.0.1",
  "updatedAt": "2018-01-06T21:41:18.754Z"
}