{
  "contractName": "EcommerceStore",
  "abi": [
    {
      "constant": false,
      "inputs": [
        {
          "name": "_id",
          "type": "uint256"
        },
        {
          "name": "_name",
          "type": "string"
        },
        {
          "name": "_category",
          "type": "string"
        },
        {
          "name": "_imageLink",
          "type": "string"
        },
        {
          "name": "_descLink",
          "type": "string"
        },
        {
          "name": "_auctionStartTime",
          "type": "uint256"
        },
        {
          "name": "_auctionEndTime",
          "type": "uint256"
        },
        {
          "name": "_startPrice",
          "type": "uint256"
        },
        {
          "name": "_productCondition",
          "type": "uint256"
        }
      ],
      "name": "addProductToStore",
      "outputs": [],
      "payable": false,
      "stateMutability": "nonpayable",
      "type": "function"
    },
    {
      "constant": true,
      "inputs": [
        {
          "name": "_id",
          "type": "uint256"
        }
      ],
      "name": "getProduct",
      "outputs": [
        {
          "components": [
            {
              "name": "id",
              "type": "uint256"
            },
            {
              "name": "name",
              "type": "string"
            },
            {
              "name": "category",
              "type": "string"
            },
            {
              "name": "imageLink",
              "type": "string"
            },
            {
              "name": "descLink",
              "type": "string"
            },
            {
              "name": "auctionStartTime",
              "type": "uint256"
            },
            {
              "name": "auctionEndTime",
              "type": "uint256"
            },
            {
              "name": "startPrice",
              "type": "uint256"
            },
            {
              "name": "highestBidder",
              "type": "address"
            },
            {
              "name": "highestBid",
              "type": "uint256"
            },
            {
              "name": "secondHighestBid",
              "type": "uint256"
            },
            {
              "name": "totalBids",
              "type": "uint256"
            },
            {
              "name": "status",
              "type": "uint8"
            },
            {
              "name": "condition",
              "type": "uint8"
            }
          ],
          "name": "",
          "type": "tuple"
        }
      ],
      "payable": false,
      "stateMutability": "view",
      "type": "function"
    },
    {
      "constant": true,
      "inputs": [],
      "name": "productIndex",
      "outputs": [
        {
          "name": "",
          "type": "uint256"
        }
      ],
      "payable": false,
      "stateMutability": "view",
      "type": "function"
    },
    {
      "inputs": [],
      "payable": false,
      "stateMutability": "nonpayable",
      "type": "constructor"
    }
  ],
  "bytecode": "0x6060604052341561000f57600080fd5b60008081905550610aa7806100256000396000f300606060405260043610610057576000357c0100000000000000000000000000000000000000000000000000000000900463ffffffff16806355aa207d1461005c578063b9db15b4146101af578063c897d5a6146101e6575b600080fd5b341561006757600080fd5b6101ad600480803590602001909190803590602001908201803590602001908080601f0160208091040260200160405190810160405280939291908181526020018383808284378201915050505050509190803590602001908201803590602001908080601f0160208091040260200160405190810160405280939291908181526020018383808284378201915050505050509190803590602001908201803590602001908080601f0160208091040260200160405190810160405280939291908181526020018383808284378201915050505050509190803590602001908201803590602001908080601f0160208091040260200160405190810160405280939291908181526020018383808284378201915050505050509190803590602001909190803590602001909190803590602001909190803590602001909190505061020f565b005b34156101ba57600080fd5b6101d060048080359060200190919050506104df565b6040518082815260200191505060405180910390f35b34156101f157600080fd5b6101f9610908565b6040518082815260200191505060405180910390f35b61021761090e565b838510151561022557600080fd5b600160008082825401925050819055506101c0604051908101604052808b81526020018a8152602001898152602001888152602001878152602001868152602001858152602001848152602001600073ffffffffffffffffffffffffffffffffffffffff168152602001600081526020016000815260200160008152602001600060028111156102b157fe5b81526020018360018111156102c257fe5b60018111156102cd57fe5b815250905080600260003373ffffffffffffffffffffffffffffffffffffffff1673ffffffffffffffffffffffffffffffffffffffff16815260200190815260200160002060008054815260200190815260200160002060008201518160000155602082015181600101908051906020019061034a9291906109c2565b5060408201518160020190805190602001906103679291906109c2565b5060608201518160030190805190602001906103849291906109c2565b5060808201518160040190805190602001906103a19291906109c2565b5060a0820151816005015560c0820151816006015560e082015181600701556101008201518160080160006101000a81548173ffffffffffffffffffffffffffffffffffffffff021916908373ffffffffffffffffffffffffffffffffffffffff160217905550610120820151816009015561014082015181600a015561016082015181600b015561018082015181600c0160006101000a81548160ff0219169083600281111561044e57fe5b02179055506101a082015181600c0160016101000a81548160ff0219169083600181111561047857fe5b021790555090505033600160008054815260200190815260200160002060006101000a81548173ffffffffffffffffffffffffffffffffffffffff021916908373ffffffffffffffffffffffffffffffffffffffff16021790555050505050505050505050565b6104e761090e565b6104ef61090e565b600260006001600086815260200190815260200160002060009054906101000a900473ffffffffffffffffffffffffffffffffffffffff1673ffffffffffffffffffffffffffffffffffffffff1673ffffffffffffffffffffffffffffffffffffffff16815260200190815260200160002060008481526020019081526020016000206101c0604051908101604052908160008201548152602001600182018054600181600116156101000203166002900480601f0160208091040260200160405190810160405280929190818152602001828054600181600116156101000203166002900480156106225780601f106105f757610100808354040283529160200191610622565b820191906000526020600020905b81548152906001019060200180831161060557829003601f168201915b50505050508152602001600282018054600181600116156101000203166002900480601f0160208091040260200160405190810160405280929190818152602001828054600181600116156101000203166002900480156106c45780601f10610699576101008083540402835291602001916106c4565b820191906000526020600020905b8154815290600101906020018083116106a757829003601f168201915b50505050508152602001600382018054600181600116156101000203166002900480601f0160208091040260200160405190810160405280929190818152602001828054600181600116156101000203166002900480156107665780601f1061073b57610100808354040283529160200191610766565b820191906000526020600020905b81548152906001019060200180831161074957829003601f168201915b50505050508152602001600482018054600181600116156101000203166002900480601f0160208091040260200160405190810160405280929190818152602001828054600181600116156101000203166002900480156108085780601f106107dd57610100808354040283529160200191610808565b820191906000526020600020905b8154815290600101906020018083116107eb57829003601f168201915b505050505081526020016005820154815260200160068201548152602001600782015481526020016008820160009054906101000a900473ffffffffffffffffffffffffffffffffffffffff1673ffffffffffffffffffffffffffffffffffffffff1673ffffffffffffffffffffffffffffffffffffffff16815260200160098201548152602001600a8201548152602001600b8201548152602001600c820160009054906101000a900460ff1660028111156108c157fe5b60028111156108cc57fe5b8152602001600c820160019054906101000a900460ff1660018111156108ee57fe5b60018111156108f957fe5b81525050905080915050919050565b60005481565b6101c0604051908101604052806000815260200161092a610a42565b8152602001610937610a42565b8152602001610944610a42565b8152602001610951610a42565b8152602001600081526020016000815260200160008152602001600073ffffffffffffffffffffffffffffffffffffffff168152602001600081526020016000815260200160008152602001600060028111156109aa57fe5b8152602001600060018111156109bc57fe5b81525090565b828054600181600116156101000203166002900490600052602060002090601f016020900481019282601f10610a0357805160ff1916838001178555610a31565b82800160010185558215610a31579182015b82811115610a30578251825591602001919060010190610a15565b5b509050610a3e9190610a56565b5090565b602060405190810160405280600081525090565b610a7891905b80821115610a74576000816000905550600101610a5c565b5090565b905600a165627a7a72305820249e61366913c11e2a485b16235a4a71b42819149995e5e2052ceae6af85d1c00029",
  "source": "pragma solidity ^0.4.13;\n\ncontract EcommerceStore {\n\n    enum ProductStatus { Open, Sold, Unsold }\n    enum ProductCondition { New, Used }\n\n    // number of products in the store\n    uint public productIndex;\n\n    // keeps track of which products are in which merchant's store (product id => store address)\n    mapping (uint => address) productIdInStore;\n\n    // (merchant account address => (number of products in store => product struct))\n    mapping (address => mapping(uint => Product)) stores;\n\n    // Product details stored on the blockchain (links references IPFS data)\n    struct Product {\n        uint id;\n        string name;\n        string category;\n        string imageLink;\n        string descLink;\n        uint auctionStartTime;\n        uint auctionEndTime;\n        uint startPrice;\n        address highestBidder;\n        uint highestBid;\n        uint secondHighestBid;\n        uint totalBids;\n        ProductStatus status;\n        ProductCondition condition;\n    }\n\n    function EcommerceStore() public {\n        // initialize product count\n        productIndex = 0;\n    }\n\n    function addProductToStore(uint _id, string _name, string _category, string _imageLink, \n                                string _descLink, uint _auctionStartTime, uint _auctionEndTime, \n                                uint _startPrice, uint _productCondition) public \n    {\n        require(_auctionStartTime < _auctionEndTime);\n        productIndex += 1;\n        Product memory product = Product(_id, _name, _category, _imageLink,\n                                 _descLink, _auctionStartTime, _auctionEndTime, _startPrice, \n                                 0, 0, 0, 0, ProductStatus.Open, ProductCondition(_productCondition));\n        stores[msg.sender][productIndex] = product;\n        productIdInStore[productIndex] = msg.sender;\n    }\n\n    function getProduct(uint _id) view public returns (Product) {\n        Product memory product = stores[productIdInStore[_id]][_id];\n        return product;\n    }\n}",
  "sourcePath": "/Users/surayashivji/Desktop/vinyl/contracts/EcommerceStore.sol",
  "compiler": {
    "name": "solc",
    "version": "0.4.18+commit.9cf6e910.Emscripten.clang"
  },
  "schemaVersion": "1.0.1",
  "updatedAt": "2018-01-06T21:27:52.174Z"
}